:0B08660012067B12080112071B80FB2A
:0407B500D2A07F054A
:1007B900000000000000000000000000000000AE82
:0607C900071FEE70EB2299
:0F083C00D2A31207B5C2A37F051207B9C2A0222B
:0C085A00C2A31207B5D2A37F050207B9A4
:02064600AD07FE
:10064800E4FCECC39408748094805024C2A07F0515
:100658001207B9ED30E704D2A38002C2A37F0512C6
:1006680007B9D2A0ED25E0FD7F051207B90C80D2AD
:02067800C2A01E
:01067A00225D
:1006F500E4FCECC394087480948050171207B5EDA0
:1007050025E0FD30A303430501C2A07F051207B90B
:050715000C80DFAF05C0
:01071A0022BC
:10082A001207B5A2A3E433FDC2A07F051207B9AF30
:01083A0005B8
:01083B00229A
:1007E900C2A0EF24FF92A37F051207B91207B5C271
:0807F900A0D2A37F050207B99D
:04084B007F327E007A
:0B084F00EF1FAC0670011E4C70F6227B
:0206A700AD079D
:1006A900E4FBEBC39408748094805012C294ED1358
:1006B900929412084BD294EDC313FD0B80E47F3260
:0506C9007E0002084F55
:10073F00E4FBEBC39408748094805014C294EDC30F
:10074F0013FDD29430940343058012084B0B80E2C3
:02075F00AF05E4
:010761002275
:1006CE00C200D2947F787E0012084FC2947F207EA3
:1006DE000312084FD2947F647E0012084FA29492A8
:0606EE000012084BA200FF
:0106F40022E3
:0B087100EF1FAC0670011E4C70F62259
:10060D00EF603224FB601314601914601F24037013
:10061D0027E5A0541F4480F5A022E5A0541F44A057
:10062D00F5A022E5A0541F44C0F5A022E5A0541F5B
:09063D0044E0F5A02253A01F22A5
:08087C007F0C7EA9DEFEDFFC0B
:010884002251
:10079A00AE077580FF7F0612060D8E807F017E00F0
:0B07AA001208717F0712060D8D8022DF
:1007CF00C0F9A4B0999282F880908883C6A1868ED2
:0A07DF007FBF0102040810204080D3
:100517000521AF21EF3395E0FEEF64064E700375BA
:100527002101E52124FE601514602414602914605C
:100537003624047042E4F52575260A803A752505A8
:10054700AE27AF287C007D641202DD8F26802875D8
:1005570025067526108020752506AE27AF287C0056
:100567007D0A1202DD8007752507AE27AF287C00BC
:100577007D0A1202DD8D26E5259007E193FFE5262A
:080587009007CF93FD02079AD3
:10034000E508C4540F75F00AA4FFE508540F2FFF09
:10035000E509C4540F75F00AA4FEE509540F2EFEFA
:10036000E50AC4540F75F00AA4FDE50A540F2DFDEB
:100370000522E52264097003752201E52214B40800
:1003800000506290039175F003A4C58325F0C583E6
:10039000730203A90203AF0203B50203BA0203C04A
:1003A0000203C60203CE0203DAE4F51DED802375D5
:1003B0001D01ED8029751D02800F751D03EE801251
:1003C000751D04EE8018751D05751E118017751DAD
:1003D00006EF75F00A84F51E800B751D07EF75F0AA
:1003E0000A8485F01EE51D9007E193FFE51E900746
:0603F000CF93FD02079A05
:100801005389F0438901758AEF758CD8C28DD2AFB7
:05081100D28CD2A922E7
:03000B0002058F5C
:10058F00C0E0C0F0C083C082C0D075D000C000C032
:10059F0001C002C003C004C005C006C007758A9B16
:1005AF00758CFF120340D007D006D005D004D003BE
:1005BF00D002D001D000D0D0D082D083D0F0D0E004
:0105CF0032F9
:1003F600C2AF1206CED2AF7FCC1206A77F4412063A
:10040600A77F107E2712084F1206CE7FCC1206A7B2
:100416007FBE1206A712073F8F2912073FD2AF757C
:1004260027008F28E528F527E529F528E52720E385
:1004360053C4F854F0C868F527E528C4540F48F5A6
:1004460028AE27FF7C007D0A1202CB8E278F28E577
:1004560029540FFCE4120216E4FBFA7920783F12C5
:100466000106C004C005C006C007AC27AD28E412CB
:100476000211D003D002D001D00012001512024A98
:040486008E278F2806
:01048A00224F
:10076200071680828486888A8C070F818385878911
:0B0772008B8D07082959230403012385
:10067B00E4FD7F8E120816E4F51FC3E51F94077483
:10068B0080948050107416251FF8E6FFAD0F1208EA
:0C069B0016051F80E57D807F8E0208168A
:10071B00E4F51FC3E51F9407748094805015740F84
:10072B00251FF8E6FF1205D07408251FF8A607054C
:03073B001F80E03C
:01073E002298
:10077E00E4FEEEC3940874809480500FC297EF137A
:0B078E0092A3EFC313FFD2970E80E789
:01079900223D
:10081600C29300C29700D2930012077EAF0512075B
:040826007EC29322D9
:1005D000E4FDC29300C29700D2930012077EE4FFAD
:1005E000EFC39408748094805011C297EDC313FD3B
:1005F00030A303430580D2970F80E5C29300C297D2
:0C06000000D29700C2A300D2A300AF05F7
:01060C0022CB
:10000E000202B6E86480F8E933E83360110460F068
:10001E00ED33EC337009E8FCE9FDEAFEEBFF220458
:10002E0060DED3EB9FEA9EE99DE8C2E78CF0C2F753
:10003E0095F0400CE8CCF8E9CDF9EACEFAEBCFFB1F
:10004E0012028185D0F05804700320D5B3E80470F5
:10005E00075002B2D50202C092D5EC0460F7E4CC90
:10006E00C0E0C398F8603B94186008400DD0E0FBE8
:10007E00020298E4FBFAC9FC8028E830E406E4C9E1
:10008E00FBE4CAFCE830E305E4C9CACBFCE854073C
:10009E006010F8C3E913F9EA13FAEB13FBEC13FC47
:1000AE00D8F130F52FC3E49CFCEF9BFFEE9AFEEDEA
:1000BE0099FDD0E0FBEF4E4D4C701222DB03020295
:1000CE00BDEC2CFCEF33FFEE33FEED33FDED30E7F0
:1000DE00EB020298EF2BFFEE3AFEED39FDD0E0FB7E
:1000EE0050130BBB00030202C0ED13FDEE13FEEF27
:0800FE0013FFEC13FC02029851
:10010600EC4D6011E8497017ED33EC3304600DE4F3
:10011600FCFFFEFD22E933E8330470F80202B61252
:10012600028158046009E4CC248150062850090253
:1001360002C02840030202BDC0E0EB4A7044B98009
:1001460006D0E0FB0202ACEF4E701CBD8008EBFF50
:10015600EAFEE9FD80EBE98DF0A4FEE5F00201EF91
:10016600E9CDF9EAFEEBFFEF89F0A4FCE5F0CE89D4
:10017600F0A42EFFE435F0CD89F0A42DFEE435F091
:100186008067EF4E7005BD80D780C3EF8BF0A4ACBF
:10019600F0EE8BF0A42CFCE435F0F8EF8AF0A42CFA
:1001A600E5F038FCE433CB8DF0A42CFCE5F03BF80D
:1001B600EE8AF0A42CFCE5F038F8E433CF89F0A4FD
:1001C6002CFCE5F038CF3400CE89F0A42FFFE5F003
:1001D6003EFEE433C98DF0A42EFEE5F039CD8AF05B
:1001E600A42FFFE5F03EFEE43DFD33D0E0FB5007D3
:1001F6000BBB000F0202C0EC2CFCEF33FFEE33FE0C
:06020600ED33FD02029839
:10020C0075F020800E75F010800575F0087D007E6D
:10021C00007F003392D530D503120332EC334010FB
:10022C00EF33FFEE33FEED33FDEC33FCD5F0ED2276
:0E023C00E5F0247EA2D513CC92E7CDCEFF22B2
:10024A00EDD2E7CD33EC3392D524814006E4FFFEAC
:10025A00FDFC22FCE4CFCECDCC24E0501174FF800B
:10026A00EDC3CC13CCCD13CDCE13CECF13CF0470A8
:07027A00F030D5DE02033273
:10028100E9D2E7C933E833F892D5EDD2E7CD33ECC3
:0702910033FC5002B2D5223C
:10029800EC30E7100FBF000C0EBE00080DBD0004C7
:1002A8000BEB6014A2D5EB13FCED92E7FD2274FF73
:1002B800FCFDFEFF22E480F8A2D574FF13FC7D80CC
:0302C800E480EFE0
:0300000002048B6C
:0C048B00787FE4F6D8FD7581290204D2C8
:1002CB00EF8DF0A4A8F0CF8CF0A428CE8DF0A42E47
:0202DB00FE2201
:1002DD00BC000BBE0029EF8DF084FFADF022E4CC05
:1002ED00F875F008EF2FFFEE33FEEC33FCEE9DECCE
:1002FD00984005FCEE9DFE0FD5F0E9E4CEFD22ED14
:10030D00F8F5F0EE8420D21CFEADF075F008EF2F5D
:10031D00FFED33FD4007985006D5F0F222C398FD4E
:05032D000FD5F0EA22EB
:0E033200C3E49FFFE49EFEE49DFDE49CFC22DC
:10049700020866E493A3F8E493A34003F68001F20D
:1004A70008DFF48029E493A3F85407240CC8C33366
:1004B700C4540F4420C8834004F456800146F6DF35
:1004C700E4800B0102040810204080900762E47E5C
:1004D700019360BCA3FF543F30E509541FFEE4932A
:1004E700A360010ECF54C025E060A840B8E493A3F1
:1004F700FAE493A3F8E493A3C8C582C8CAC583CA1C
:10050700F0A3C8C582C8CAC583CADFE9DEE780BED3
:01077D00007B
:00000001FF
